{
  "contractName": "RandomNumberGenerator",
  "abi": [
    {
      "constant": false,
      "inputs": [],
      "name": "linearRandomGenerator",
      "outputs": [],
      "payable": false,
      "stateMutability": "nonpayable",
      "type": "function"
    },
    {
      "constant": false,
      "inputs": [
        {
          "internalType": "uint256",
          "name": "newSeed",
          "type": "uint256"
        }
      ],
      "name": "setSeed",
      "outputs": [],
      "payable": false,
      "stateMutability": "nonpayable",
      "type": "function"
    },
    {
      "constant": false,
      "inputs": [
        {
          "internalType": "uint256",
          "name": "newM",
          "type": "uint256"
        },
        {
          "internalType": "uint256",
          "name": "newA",
          "type": "uint256"
        },
        {
          "internalType": "uint256",
          "name": "newC",
          "type": "uint256"
        }
      ],
      "name": "setParameters",
      "outputs": [],
      "payable": false,
      "stateMutability": "nonpayable",
      "type": "function"
    },
    {
      "constant": true,
      "inputs": [],
      "name": "getSeed",
      "outputs": [
        {
          "internalType": "uint256",
          "name": "",
          "type": "uint256"
        }
      ],
      "payable": false,
      "stateMutability": "view",
      "type": "function"
    },
    {
      "constant": true,
      "inputs": [],
      "name": "getResult",
      "outputs": [
        {
          "internalType": "uint256",
          "name": "",
          "type": "uint256"
        }
      ],
      "payable": false,
      "stateMutability": "view",
      "type": "function"
    },
    {
      "constant": true,
      "inputs": [],
      "name": "getParameters",
      "outputs": [
        {
          "internalType": "uint256",
          "name": "",
          "type": "uint256"
        },
        {
          "internalType": "uint256",
          "name": "",
          "type": "uint256"
        },
        {
          "internalType": "uint256",
          "name": "",
          "type": "uint256"
        }
      ],
      "payable": false,
      "stateMutability": "view",
      "type": "function"
    }
  ],
  "bytecode": "0x608060405260008055600060015566010000000000006002556405deece66d600355600b60045534801561003257600080fd5b506101f5806100426000396000f3fe608060405234801561001057600080fd5b50600436106100625760003560e01c806334c5d2ce1461006757806339e7357c146100a95780634fae350a146100c7578063a5ea11da146100d1578063c32a50f9146100fd578063de2927891461012b575b600080fd5b6100a76004803603606081101561007d57600080fd5b81019080803590602001909291908035906020019092919080359060200190929190505050610149565b005b6100b1610163565b6040518082815260200191505060405180910390f35b6100cf61016c565b005b6100d961018a565b60405180848152602001838152602001828152602001935050505060405180910390f35b6101296004803603602081101561011357600080fd5b81019080803590602001909291905050506101a3565b005b6101336101b6565b6040518082815260200191505060405180910390f35b826002819055508160038190555080600481905550505050565b60008054905090565b60025460045460015460035402018161018157fe5b06600181905550565b6000806000600254600354600454925092509250909192565b8060008190555060005460018190555050565b600060015490509056fea265627a7a723158209b9c2f1be38bc93f9b48d8840426b30be5bfbd68c0ed0630a8252cd01546798764736f6c63430005100032",
  "source": "// SPDX-License-Identifier: MIT\npragma solidity >=0.4.22 <0.9.0;\n\ncontract RandomNumberGenerator {\n    uint256 seed = 0;\n    uint256 result = 0;\n    // Initial Parameters, POSIX standar\n    uint256 m = 2 ** 48;\n    uint256 a = 25214903917;\n    uint256 c = 11;\n    \n    function linearRandomGenerator() public {\n      result = ( a * result + c ) % m;\n    }\n    \n    function setSeed(uint256 newSeed) public {\n      seed = newSeed;\n      result = seed;\n    }\n\n    function setParameters(uint256 newM, uint256 newA, uint256 newC) public {\n      m = newM;\n      a = newA;\n      c = newC;\n    }\n    \n    function getSeed() public view returns (uint256) {\n        return seed;\n    }\n    \n    function getResult() public view returns (uint256) {\n        return result;\n    }\n\n    function getParameters() public view returns (uint256, uint256, uint256) {\n      return (m, a, c);\n    }\n}\n",
  "sourcePath": "D:/Proyectos/ethereum-test/contracts/RandomNumberGenerator.sol",
  "compiler": {
    "name": "solc",
    "version": "0.5.16+commit.9c3226ce.Emscripten.clang"
  },
  "schemaVersion": "3.4.1",
  "updatedAt": "2021-07-30T04:56:31.871Z",
  "devdoc": {
    "methods": {}
  },
  "userdoc": {
    "methods": {}
  }
}